:020000040800F2
:10000000000002206D2B00088D0800088F080008F2
:1000100091080008930800089508000800000000F7
:100020000000000000000000000000009708000829
:1000300099080008000000009B0800089D080008BF
:10004000BD2B0008BD2B0008BD2B0008BD2B0008F0
:10005000BD2B0008BD2B0008BD2B0008BD2B0008E0
:10006000BD2B0008BD2B0008BD2B0008BD2B0008D0
:10007000BD2B0008BD2B0008BD2B0008BD2B0008C0
:10008000BD2B0008BD2B0008BD2B0008BD2B0008B0
:10009000BD2B0008BD2B0008BD2B0008A5080008DB
:1000A000BD2B0008BD2B0008BD2B0008BD2B000890
:1000B000BD2B0008BD2B0008BD2B0008BD2B000880
:1000C000BD2B0008BD2B0008BD2B0008BD2B000870
:1000D000BD2B0008B1080008BD2B0008BD2B00088F
:1000E000BD2B0008BD2B0008BD2B0008BD2B000850
:1000F000BD2B0008BD2B0008BD2B0008BD2B000840
:10010000BD2B0008BD2B0008BD2B0008BD2B00082F
:10011000BD2B0008BD2B0008BD2B0008BD2B00081F
:10012000BD2B0008BD2B0008C1080008BD2B00082E
:10013000BD2B00080000000000000000BD2B0008DF
:10014000BD2B0008BD2B0008BD2B0008BD2B0008EF
:10015000BD2B0008BD2B0008D1080008BD2B0008EE
:10016000BD2B0008BD2B0008BD2B0008BD2B0008CF
:10017000BD2B0008BD2B000800000000000000009F
:04018000BD2B00088B
:1001840010B5054C237833B9044B13B10448AFF3CD
:1001940000800123237010BD6000002000000000D7
:1001A400182C000808B5034B1BB103490348AFF3EF
:1001B400008008BD0000000064000020182C000826
:1001C40010F8012B11F8013B012A28BF9A42F7D0FD
:1001D400D01A7047034613F8012B002AFBD1181AD2
:1001E4000138704753B94AB9002908BF00281CBF19
:1001F4004FF0FF314FF0FF3000F074B9ADF1080C4F
:100204006DE904CE00F006F8DDF804E0DDE9022330
:1002140004B070472DE9F0478C460446089E002B35
:1002240040F086808A42154648D9B2FA82F24AB131
:10023400C2F1200701FA02F320FA07F7954047EAD2
:10024400030C94404FEA154EBCFBFEF71FFA85F8E9
:100254000EFB17C307FB08F9210C41EA0343994538
:1002640009D9EB1807F1FF3180F0E180994540F29C
:10027400DE80023F2B44A3EB0903B3FBFEF00EFB2D
:10028400103300FB08F1A4B244EA0344A14209D9A3
:100294002C1900F1FF3380F0C880A14240F2C580E0
:1002A40002382C4440EA07400027641A1EB1002398
:1002B400D440C6E900433946BDE8F087002A54D04B
:1002C400B2FA82F2002A40F0B4800127491B4FEAB7
:1002D40015481FFA85F9B1FBF8FE08FB1E1109FB4E
:1002E4000EF04FEA144C4CEA0143984207D9EB183C
:1002F4000EF1FF3102D2984200F2EB808E461B1AB7
:10030400B3FBF8F008FB103309FB00F9A4B244EA8C
:100314000344A14507D92C1900F1FF3302D2A145AA
:1003240000F2DB801846A4EB090440EA0E40BDE766
:100334008B4208D9002E75D00027C6E90001384643
:100344003946BDE8F087B3FA83F77FB98B4202D30D
:10035400824200F2BC80841A61EB030301209C46B4
:10036400002EA8D0C6E9004CA5E7FFDEC7F12005A2
:10037400BB4022FA05FC4CEA030C21FA05F44FEACF
:100384001C4EB4FBFEF91FFA8CF80EFB194420FA3C
:1003940005F3B94009FB08FA19430B0C43EA04447A
:1003A400A24502FA07F200FA07F30BD91CEB040486
:1003B40009F1FF3080F08980A24540F28680A9F1DE
:1003C40002096444A4EB0A04B4FBFEF00EFB1044DF
:1003D40000FB08FA89B241EA0444A24508D91CEB9F
:1003E400040400F1FF316CD2A2456AD90238644496
:1003F40040EA0940A0FB0289A4EB0A044C454146AB
:10040400CE4655D352D0002E6AD05A1A64EB0E044D
:1004140004FA05F522FA07F3FC401D43C6E900542B
:10042400002748E73746304645E718463AE70F467F
:1004340021E79540C2F1200321FA03F04FEA154861
:10044400B0FBF8F71FFA85F908FB170E24FA03FC32
:10045400914007FB09FA4CEA0101080C40EA0E40FE
:10046400824504FA02F407D9281807F1FF332AD287
:10047400824528D9023F2844A0EB0A00B0FBF8FCCF
:1004840008FB1C000CFB09F389B241EA00418B42D2
:1004940008D969180CF1FF3011D28B420FD9ACF195
:1004A400020C2944C91A4CEA074714E74345AAD267
:1004B400B8EB020169EB0C0201389646A3E78446C7
:1004C400F0E7084694E71F46D6E781467AE73846C0
:1004D40046E7AEF1020E2B4411E702382C4422E722
:1004E4003746E8E6704700BF10B588B0002406948C
:1004F40007940094194B1A6B42F080021A631A6B2A
:1005040002F080020092009A01941A6B42F00202F7
:100514001A631A6B02F002020192019A02941A6B96
:1005240042F001021A631B6B03F001030293029B66
:100534004FF4007303934FF488130493012305933A
:1005440003A9074801F038FA22462146172001F092
:10055400DBF9172001F00CFA08B010BD0038024096
:100564000004024010B582B0002401940D4B1A6BB4
:1005740042F480021A631B6B03F480030193019B12
:10058400224621463A2001F0BFF93A2001F0F0F961
:1005940022462146462001F0B7F9462001F0E8F949
:1005A40002B010BD0038024010B5054B1C6820464F
:1005B400FFF710FE02460021204602F023FB10BD87
:1005C4000400002010B5114B1B780D2B11D01049DD
:1005D4000A68501C08600F498B54642301220B499C
:1005E4000D4801F042FE012208490B4802F09FF831
:1005F40010BD0A4B01221A70094C642302222146C1
:10060400054801F032FE00232380ECE7840000203B
:1006140080000020DC010020940100207C000020E8
:10062400382C000872B6FEE708B50A480A4B036086
:100634004FF4E133436000238360C36003610C2201
:1006440042618361C36101F0E0FD00B908BDFFF7B9
:10065400E9FF00BF940100200010014000B58FB0F5
:1006640000230A930B930C930D930893099301931E
:100674000293039304930593069307932748284A08
:1006840002604FF47A72426083604FF48072C260F9
:100694000261836100F026FB002831D14FF48053BE
:1006A4000A930AA91D4800F026FC58BB1B4800F019
:1006B40045FB48BB00230893099308A9174800F099
:1006C40031FD18BB6023019300220292039205922C
:1006D40001A9124800F096FBD0B904220DEB0201E7
:1006E4000E4800F08FFBA8B90C2201A90B4800F0BA
:1006F40089FB88B9094800F025F90FB05DF804FBBF
:10070400FFF790FFFFF78EFFFFF78CFFFFF78AFFDD
:10071400FFF788FFFFF786FFFFF784FF8C000020B8
:100724000004004000B593B00023089309930A9392
:100734000B9301930293039304930593012306936C
:10074400079302230C934FF480020D9208220E9219
:10075400E0220F9210930423119306A800F08EFD5B
:1007640098B90F23019302230293002303934FF4B8
:10077400A05304934FF480530593032101A800F080
:10078400C9FF20B913B05DF804FBFFF74BFFFFF777
:1007940049FF000038B500F02FFDFFF7C3FFFFF756
:1007A400A3FEFFF7DFFEFFF73FFFFFF757FF2B4CDA
:1007B4000021204600F030FC0421204600F02CFCEF
:1007C4000C21204600F028FC254B1A78254B5A634F
:1007D4009A631A64244B1D682846FFF7FBFC234CDC
:1007E40082B22946204601F0A0FD0122204920467C
:1007F40001F09DFF13E01F4801F0F4FF16E01E4CCA
:100804004FF47A730C222146184801F02EFD002380
:1008140023606360A3604FF47A7000F019FD052033
:1008240000F016FD154B1B78002BE4D14FF400713A
:10083400134801F0ABF90028E1D0124C4FF47A735D
:100844000A222146094801F010FD00232360636059
:1008540023814FF47A7000F0FBFCE0E78C00002069
:100864000100002000040040040000209401002046
:1008740084000020DC0100203C2C00087C000020C7
:1008840000040240302C0008FEE7FEE7FEE7FEE726
:10089400FEE770477047704708B500F0C7FC08BD15
:1008A40008B54FF4007001F079F908BD08B50248A5
:1008B40001F0E0FD08BD00BF9401002008B5024826
:1008C40001F0A6FA08BD00BF3401002008B50248B3
:1008D40001F09EFA08BD00BFD400002082B00021C0
:1008E40000910B4B5A6C42F480425A645A6C02F4E5
:1008F40080420092009A01911A6C42F080521A646C
:100904001B6C03F080530193019B02B0704700BF3E
:10091400003802400268094B9A4200D0704782B006
:1009240000230193064B1A6C42F002021A641B6CFA
:1009340003F002030193019B02B0704700040040DE
:100944000038024000B587B000230193029303935B
:100954000493059302680E4B9A4202D007B05DF8E7
:1009640004FB002300930B4B1A6B42F002021A6340
:100974001B6B03F002030093009B322301930223B9
:100984000293059301A9044801F016F8E6E700BFB5
:1009940000040040003802400004024030B589B031
:1009A400002303930493059306930793026803F1CA
:1009B400804303F588339A4201D009B030BD044620
:1009C4000025019503F594335A6C42F010025A64E1
:1009D4005A6C02F010020192019A02951A6B42F0CD
:1009E40001021A631B6B03F001030293029B4FF491
:1009F400C0630393022304930323069307230793FB
:100A040003A9204800F0D8FF1F48204B03604FF093
:100A1400006343608560C5604FF480630361456192
:100A24008561C5610562456201F02EF918BB164B5C
:100A3400E3639C631648174B03604FF00063436005
:100A4400402383600023C3604FF4806202614361EA
:100A54008361C3610362436201F016F970B90C4B00
:100A6400A3639C6300221146252000F04DFF25203E
:100A740000F07EFFA1E7FFF7D5FDD8E7FFF7D2FD31
:100A8400EDE700BF00000240340100204064024052
:100A9400D4000020B864024030B4056A026A22F02F
:100AA400010202624268846924F073040B681C43E7
:100AB40025F002058B682B43104DA84203D005F5A1
:100AC4008065A84205D123F00803CD682B4323F0A9
:100AD40004030A4DA84203D005F58065A84205D158
:100AE40022F440724D6915438A692A434260846145
:100AF4004A684263036230BC704700BF0000014093
:100B040030B4036A026A22F4807202624268C469E1
:100B140024F073040D682C4323F400738D6843EAB6
:100B24000523124DA84203D005F58065A84206D1DD
:100B340023F40063CD6843EA052323F480630B4D5B
:100B4400A84203D005F58065A84207D122F440529B
:100B54004D6942EA05128D6942EA05124260C46198
:100B64004A68C263036230BC704700BF00000140A2
:100B740030B4036A026A22F4805202624468C26991
:100B840022F4E6420D6842EA052223F400538D68FC
:100B940043EA0533094DA84203D005F58065A84210
:100BA40004D124F480444D6944EA85144460C2614C
:100BB4004A680264036230BC704700BF0000014011
:100BC40010B4036A046A24F001040462846924F002
:100BD400F00444EA021223F00A030B438261036225
:100BE40010BC704710B4036A046A24F01004046251
:100BF400846924F4704444EA023223F0A00343EAF3
:100C040001138261036210BC7047836823F0700390
:100C1400194341F007018160704770470368304A07
:100C2400904212D0B0F1804F0FD0A2F57C42904296
:100C34000BD002F58062904207D002F580629042A8
:100C440003D002F57842904203D123F070034A683E
:100C54001343234A90422AD0B0F1804F27D0A2F503
:100C64007C42904223D002F5806290421FD002F56C
:100C7400806290421BD002F57842904217D002F570
:100C84007052904213D002F5806290420FD002F568
:100C9400806290420BD0A2F59832904207D002F5C0
:100CA4008062904203D002F58062904203D123F423
:100CB4004073CA68134323F080034A6913430360F3
:100CC4008B68C3620B688362054B984203D003F5BB
:100CD4008063984201D10B69036301234361704728
:100CE4000000014040B310B5044690F83D30F3B124
:100CF400022384F83D30214651F8040BFFF78EFFA0
:100D0400012384F8463084F83E3084F83F3084F878
:100D1400403084F8413084F8423084F8433084F819
:100D2400443084F8453084F83D30002010BD80F80C
:100D34003C30FFF7EFFDDBE70120704740B310B50F
:100D4400044690F83D30F3B1022384F83D30214647
:100D540051F8040BFFF762FF012384F8463084F84E
:100D64003E3084F83F3084F8403084F8413084F8D1
:100D7400423084F8433084F8443084F8453084F8B1
:100D84003D30002010BD80F83C30FFF746FFDBE724
:100D94000120704730B4036A026A22F01002026232
:100DA4004468826922F4E6420D6842EA052223F08F
:100DB40020038D6843EA0513114DA84203D005F5BD
:100DC4008065A84206D123F08003CD6843EA051369
:100DD40023F040030A4DA84203D005F58065A842DC
:100DE40007D124F440644D6944EA85048D6944EADA
:100DF4008504446082614A688263036230BC704740
:100E04000000014038B590F83C30012B66D00D4607
:100E14000446012380F83C300C2A5DD8DFE802F058
:100E2400075C5C5C1E5C5C5C335C5C5C470000687B
:100E3400FFF732FE2268936943F008039361226846
:100E4400936923F0040393612268936929690B432E
:100E540093610020002384F83C3038BD0068FFF71C
:100E640099FF2268936943F400639361226893694C
:100E740023F48063936122689369296943EA012317
:100E840093610020E6E70068FFF73AFE2268D36921
:100E940043F00803D3612268D36923F00403D361C8
:100EA4002268D36929690B43D3610020D2E7006823
:100EB400FFF75EFE2268D36943F40063D3612268BE
:100EC400D36923F48063D3612268D369296943EA2F
:100ED4000123D3610020BDE70120BBE70220BCE76A
:100EE40010B4846824F47F4442EA03230B4323436D
:100EF400836010BC704790F83C30012B79D010B55A
:100F04000446012380F83C30022380F83D30026817
:100F1400936823F47F4323F0770393600B68402B9B
:100F240054D011D9702B39D023D8502B43D0602BF7
:100F34001DD1CA6849680068FFF754FE6021206823
:100F4400FFF763FE00200BE0102B4AD005D9202BBD
:100F540047D0302B45D0012002E0002B41D00120A6
:100F6400012384F83D30002384F83C3010BD012077
:100F7400F6E7B3F5805F3AD0B3F5005F0CD1CB68E8
:100F84004A6889680068FFF7ABFF2268936843F4F6
:100F9400804393600020E3E70120E1E7CB684A68DF
:100FA40089680068FFF79CFF2268936843F0770321
:100FB40093600020D4E7CA6849680068FFF700FE20
:100FC40050212068FFF721FE0020C9E7CA6849685C
:100FD4000068FFF7F5FD40212068FFF716FE0020AA
:100FE400BEE719462068FFF710FE0020B8E700208E
:100FF400B6E70220704710B401F01F01012303FA81
:1010040001F4036A23EA04030362036A8A40134374
:10101400036210BC704700000A46002945D190F8CD
:101024003E30DBB213F1FF3318BF0123002B73D121
:1010340010B5002A55D1022380F83E3011460446EB
:1010440001220068FFF7D7FF2368354A934203D093
:1010540002F58062934203D15A6C42F400425A640E
:1010640023682F4A93424CD0B3F1804F49D0A2F564
:101074007C42934245D002F58062934241D002F50E
:10108400806293423DD002F57842934239D002F512
:101094007052934235D0A2F59432934231D01A68FB
:1010A40042F001021A60002035E0042909D0082921
:1010B4000FD090F84130DBB213F1FF3318BF012396
:1010C400B4E790F83F30DBB213F1FF3318BF0123CC
:1010D400ACE790F84030DBB213F1FF3318BF0123C3
:1010E400A4E7042A05D0082A07D0022380F8413057
:1010F400A4E7022380F83F30A0E7022380F84030C1
:101104009CE79A6802F00702062A07D01A6842F0A0
:1011140001021A60002010BD012070470020FAE788
:101124000000014090F83C30012B3BD030B4012347
:1011340080F83C30022380F83D3003685C689D6889
:1011440024F070040A6822435A600368164A9342E2
:101154001AD0B3F1804F17D0A2F57C42934213D03A
:1011640002F5806293420FD002F5806293420BD065
:1011740002F57842934207D002F57052934203D0AD
:10118400A2F59432934204D125F080054A681543B0
:101194009D60012380F83D30002380F83C301846E0
:1011A40030BC7047022070470000014010B504466F
:1011B4000E4B18784FF47A73B3FBF0F30C4A1068B3
:1011C400B0FBF3F000F0E2FB68B90F2C01D9012069
:1011D4000AE0002221464FF0FF3000F095FB054B5A
:1011E4001C60002000E0012010BD00BF08000020AA
:1011F400100000200C00002008B50B4B1A6842F4C4
:1012040000721A601A6842F480621A601A6842F422
:1012140080721A60032000F065FB0020FFF7C6FF10
:10122400FFF75CFB002008BD003C0240034A116844
:10123400034B1B780B441360704700BF400200202F
:1012440008000020014B1868704700BF40020020CE
:1012540030B583B00190FFF7F5FF0546019CB4F16A
:10126400FF3F02D0044B1B781C44FFF7EBFF401BED
:10127400A042FAD303B030BD08000020002800F0DB
:10128400C68170B582B00446036813F0010F2ED0F6
:10129400AD4B9B6803F00C03042B1FD0AA4B9B6837
:1012A40003F00C03082B14D02279A84B1A7063683E
:1012B400002B40D0FFF7C6FF0546A34B1B6813F471
:1012C400003F14D1FFF7BEFF401B6428F5D903206B
:1012D400A4E19D4B5B6813F4800FE5D09A4B1B6827
:1012E40013F4003F03D06368002B00F0928123685D
:1012F40013F0020F4AD0944B9B6813F00C0F2ED0BE
:10130400914B9B6803F00C03082B23D0E368002B5C
:1013140063D08F4B01221A60FFF794FF05468A4B76
:101324001B6813F0020F49D1FFF78CFF401B022802
:10133400F5D9032072E1FFF785FF0546824B1B6850
:1013440013F4003FD3D0FFF77DFF401B6428F5D989
:10135400032063E17C4B5B6813F4800FD6D17A4B96
:101364001B6813F0020F03D0E368012B40F0538194
:101374007548036823F0F8032169F82292FAA2F26F
:10138400B2FA82F201FA02F213430360236813F003
:10139400080F46D0636993B36E4B01221A60FFF7BE
:1013A40051FF0546684B5B6F13F0020F39D1FFF70D
:1013B40049FF401B0228F5D903202FE16248036846
:1013C40023F0F8032169F82292FAA2F2B2FA82F227
:1013D40001FA02F213430360D8E75D4B00221A605E
:1013E400FFF730FF0546584B1B6813F0020FCDD0B2
:1013F400FFF728FF401B0228F5D903200EE1554BC7
:1014040000221A60FFF71EFF05464F4B5B6F13F077
:10141400020F06D0FFF716FF401B0228F5D9032060
:10142400FCE0236813F0040F58D0474B1B6C13F0F7
:10143400805F2BD100230193434B1A6C42F08052FE
:101444001A641B6C03F080530193019B0125424BEA
:101454001A6842F480721A601B6813F4807F17D0F4
:10146400227A3E4B1A70A36833B3FFF7EBFE0646AD
:10147400354B1B6F13F0020F2FD1FFF7E3FE801BD8
:1014840041F288339842F3D90320C7E00025DEE710
:10149400314A136843F480731360FFF7D3FE0646A2
:1014A4002D4B1B6813F4807FDAD1FFF7CBFE801B32
:1014B4000228F5D90320B1E0FFF7C4FE0646224B0B
:1014C4001B6F13F0020F08D0FFF7BCFE801B41F224
:1014D40088339842F3D90320A0E0EDB9A369002B27
:1014E40000F09B80184A926802F00C02082A69D026
:1014F400022B17D01A4B00221A60FFF7A3FE0446F2
:10150400114B1B6813F0007F5AD0FFF79BFE001BA2
:101514006428F5D9032081E00B4A136C23F080532F
:101524001364DBE70E4B00221A60FFF78BFE0546BF
:10153400054B1B6813F0007F14D0FFF783FE401B9C
:101544006428F5D9032069E00038024002380240DB
:1015540000004742800E474200700040703802404D
:10156400600047423448426822F0746222F45F32D9
:1015740022F47F7222F00302E369216A0B43616A59
:1015840043EA8113E16A43EA0163A16A4908013924
:1015940043EA014313434360284B01221A60FFF7D7
:1015A40051FE0446244B1B6813F0007F06D1FFF75D
:1015B40049FE001B6428F5D903202FE000202DE00C
:1015C40000202BE0012B2BD01B4B5B6803F4800124
:1015D400E269914226D103F03F02216A8A4223D173
:1015E400616A47F6C0721A40B2EB811F1ED103F440
:1015F4004031A26A5208013AB1EB024F18D103F00C
:101604007063E26AB3EB026F14D1002006E001209C
:101614007047012002E0012000E0002002B070BD0C
:101624000120FBE70120F9E70120F7E70120F5E7B6
:101634000120F3E70120F1E700380240600047424F
:10164400314B9B6803F00C03042B58D0082B58D162
:1016540070B52D4B5A6802F03F025B6813F4800F9B
:101664002AD0294B5868C0F3881005460026430148
:101674001B1A66EB0604A10141EA93619801C01AA2
:1016840061EB0401CB0043EA5073C40019466019AE
:1016940046EB01014B0243EAD0534402204619466B
:1016A4003346FEF79FFD184B5B68C3F301430133D8
:1016B4005B00B0FBF3F070BD134B5868C0F38810A7
:1016C4000546002643011B1A66EB0604A10141EA04
:1016D40093619801C01A61EB0401CB0043EA507393
:1016E400C4001946601946EB01018B0243EA90538A
:1016F4008402204619463346FEF774FDD3E70348B7
:1017040070470348704700BF0038024000127A0057
:101714000024F400002800F0A08070B50446534B68
:101724001B6803F00F038B4208D2CBB24F4A1370ED
:10173400136803F00F038B4240F09180236813F089
:10174400020F17D013F0040F04D0494A936843F4EE
:10175400E0539360236813F0080F04D0444A93685D
:1017640043F460439360424A936823F0F003A06813
:10177400034393600D46236813F0010F31D063686F
:10178400012B20D0022B25D0394A126812F0020F07
:1017940067D037498A6822F0030213438B60FFF74E
:1017A40051FD0646324B9B6803F00C036268B3EBB1
:1017B400820F16D0FFF746FD801B41F28833984212
:1017C400F0D9032048E02A4A126812F4003FE0D11D
:1017D400012041E0264A126812F0007FD9D101208D
:1017E4003AE0224B1B6803F00F03AB4207D9EAB27D
:1017F4001E4B1A701B6803F00F03AB4233D12368EE
:1018040013F0040F06D01A4A936823F4E053E168F6
:101814000B439360236813F0080F07D0144A9368AE
:1018240023F46043216943EAC1039360FFF708FF8F
:101834000F4B9B6803F0F003F02292FAA2F2B2FA83
:1018440082F2D3400B4AD35CD8400B4B18600B4B4D
:101854001868FFF7ABFC002070BD01207047012021
:10186400FAE70120F8E70120F6E700BF003C024058
:1018740000380240742C0008100000200C000020E6
:10188400014B1868704700BF1000002008B5FFF72F
:10189400F7FF074B9B6803F4E0534FF4E05292FACE
:1018A400A2F2B2FA82F2D340024AD35CD84008BD15
:1018B40000380240842C000808B5FFF7E1FF074B0D
:1018C4009B6803F460434FF4604292FAA2F2B2FAC6
:1018D40082F2D340024AD35CD84008BD00380240AB
:1018E400842C0008074AD36823F4E0631B041B0C10
:1018F400000200F4E060184340F0BF6040F40030A0
:10190400D060704700ED00E030B4174BDB68C3F3E0
:101914000223C3F10704042C28BF04241D1D062D33
:1019240001D9033B00E000234FF0FF3505FA04F42E
:1019340021EA0401994005FA03F322EA0303194357
:10194400002809DB0901C9B200F1604000F56140DB
:1019540080F8001330BC704700F00F000901C9B2D1
:10196400024B1954F6E700BF00ED00E014ED00E06F
:10197400002807DB00F01F02400901239340024ABC
:1019840042F82030704700BF00E100E00138B0F1B8
:10199400807F0AD2064B5860064AF02182F8231051
:1019A4000020986007221A6070470120704700BF2A
:1019B40010E000E000ED00E0F0B482B000235BE052
:1019C40086685F000325BD4026EA0506CD68BD4054
:1019D40035438560466826EA04064D68C5F300145D
:1019E4009C403443446055E0DD08083550F82570C8
:1019F40003F00704A6000F24B44027EA04070C6987
:101A0400B4403C4340F8254058E0082400E000245A
:101A1400B4403C430235594E46F82540584CA5681D
:101A2400D44304EA05064F6817F4801F01D042EA44
:101A34000506534DAE60ED6804EA05064F6817F4D9
:101A4400001F01D042EA05064D4DEE606D6804EAC0
:101A540005064F6817F4003F01D042EA0506484DD9
:101A64006E602D682C404E6816F4803F01D042EA27
:101A74000504434A146001330A6832FA03F47AD045
:101A840001249C402240F6D04D6805F00305013D39
:101A9400012D95D94C6804F00304032C09D0C568C2
:101AA4005E000324B44025EA04058C68B4402C434A
:101AB400C4604C6804F00304022C95D005685E00F1
:101AC4000324B44025EA04054C6804F00304B4403C
:101AD4002C4304604C6814F4403FCCD0002401949F
:101AE400284C656C45F480456564646C04F480445A
:101AF4000194019C9D08AE1C204C54F8267003F000
:101B04000304A6000F24B44027EA04071E4CA04295
:101B14003FF47DAF04F58064A0421ED004F58064D8
:101B2400A0421CD004F58064A0421AD004F580645D
:101B3400A04218D004F58064A04216D004F5806455
:101B4400A04214D004F58064A04212D004F580644D
:101B5400A0423FF45AAF09245AE7012458E702246B
:101B640056E7032454E7042452E7052450E70624E7
:101B74004EE707244CE702B0F0BC70470038014040
:101B8400003C014000380240000002400369194251
:101B940001D00120704700207047704708B5054BFD
:101BA4005B69034200D108BD024B5861FFF7F5FFA2
:101BB400F9E700BF003C014010B40368D9B2103902
:101BC4000B4AA2FB014212090A4CA25CC2655F29BE
:101BD40008D923F47F7323F0030304338365806DF2
:101BE40010BC704723F47F7323F003038365F6E787
:101BF400ABAAAAAA6C2C0008836A826992B9012B49
:101C04000AD01BB1022B01D000207047C36A13F025
:101C1400807F28D100207047C36AB3F1C07F24D0ED
:101C240000207047B2F5005F09D0022B25D9032BA1
:101C340025D1C36A13F0807F23D100207047032B82
:101C440003D8DFE803F01404140A00207047C36AC1
:101C540013F0807F0DD100207047C36AB3F1C07FB9
:101C640009D00020704701207047012070470120EF
:101C74007047012070470120704701207047002001
:101C8400704701207047000070B50446FFF7DAFA88
:101C9400002C5BD00546022384F83530002384F8F9
:101CA40034302268136823F00103136023681A6830
:101CB40012F0010F0AD0FFF7C5FA401B0528F5D929
:101CC40020236365032084F8350070BD1A6820481A
:101CD40010406168A2680A43E1680A4321690A4323
:101CE40061690A43A1690A43E1690A43216A0A4313
:101CF4000243616A04291ED01A602668756925F0BA
:101D04000705636A1D43042B07D1A36A1D43E36AD5
:101D14001BB12046FFF770FF90B975612046FFF7AD
:101D24004BFFE26D3F2393408360002060650123F5
:101D340084F83530C9E7E16A206B01430A43DBE7E5
:101D440040236365012084F83500BEE70120BCE729
:101D54003F8010F070B50446866DFFF773FA94F86F
:101D64003530DBB2022B06D080236365002384F870
:101D74003430012070BD05462268136823F0160331
:101D840013602268536923F080035361236CE3B129
:101D94002268136823F0080313602268136823F091
:101DA4000103136023681B6813F0010F11D0FFF7C0
:101DB40049FA401B0528F5D920236365032084F8DC
:101DC4003500002384F83430D4E7A36C002BDFD132
:101DD400E3E7E26D3F239340B360012384F8353099
:101DE400002084F83400C5E790F83530DBB2022BCC
:101DF40003D08023436501207047052380F83530E4
:101E04000268136823F00103136000207047000088
:101E1400F0B583B0044600230193724B1D68724BE6
:101E2400A3FB0535AD0A876D3E68C26D0823934058
:101E3400334210D003681A6812F0040F0BD01A68EA
:101E440022F004021A60C26D08239340BB60436D04
:101E540043F001034365E26D01239340334209D00B
:101E64002268526912F0800F04D0BB60636D43F0A6
:101E740002036365E26D04239340334209D0226870
:101E8400126812F0020F04D0BB60636D43F00403C8
:101E94006365E26D10239340334224D022681268B4
:101EA40012F0080F1FD0BB6023681A6812F4802F49
:101EB4000DD01B6813F4002F04D1236C9BB1204672
:101EC400984710E0A36C73B1204698470BE01A685A
:101ED40012F4807F03D11A6822F008021A60236C7E
:101EE4000BB120469847E26D20239340334255D0EE
:101EF4002268126812F0100F50D0BB6094F835308D
:101F0400DBB2052B0ED023681A6812F4802F33D06D
:101F14001B6813F4002F2AD1636C002B3ED020469B
:101F240098473BE02268136823F016031360226885
:101F3400536923F080035361236CA3B122681368AF
:101F440023F008031360E26D3F239340BB60012339
:101F540084F83530002384F83430236D002B3FD0CF
:101F6400204698473CE0A36C002BE7D1EBE7E36BFA
:101F7400A3B12046984711E01A6812F4807F09D172
:101F84001A6822F010021A60012384F83530002305
:101F940084F83430E36B0BB120469847636DFBB192
:101FA400636D13F0010F17D0052384F835302268D0
:101FB400136823F001031360019B01330193AB42C7
:101FC40004D823681B6813F0010FF5D1012384F8AA
:101FD4003530002384F83430E36C0BB12046984745
:101FE40003B0F0BD10000020B5814E1B704702689D
:101FF40002F10C0353E8003F23F490730C3242E8DF
:1020040000310029F3D1026802F1140353E8003FC0
:1020140023F00103143242E800310029F3D1036BA9
:10202400012B05D0202380F842300023036370473E
:10203400026802F10C0353E8003F23F010030C3252
:1020440042E800310029F3D1ECE790F84130DBB2EB
:10205400212B01D0022070478368B3F5805F16D02E
:10206400036A5A1C02621A7803685A60C38C013BE3
:102074009BB2C3844BB90268D36823F08003D36056
:102084000268D36843F04003D360002070470369BB
:10209400002BE5D1036A1B880268C3F3080353606D
:1020A400036A02330362E1E738B504460268136940
:1020B40023F44053C1680B431361836802691343DB
:1020C40042691343C2691A430168CB6823F4164377
:1020D40023F00C031343CB600268536923F4407369
:1020E40081690B4353610368264A934206D002F583
:1020F4008062934202D0FFF7C9FB01E0FFF7DCFBEB
:10210400E369B3F5004F1DD000EB800000EB8000C5
:1021140063689B00B0FBF3F01B4DA5FB0032510933
:10212400642202FB110213013233A5FB03235B0972
:1021340003F0F00202EB011203F00F0321681344D1
:102144008B6038BD00EB800000EB800063685B00AF
:10215400B0FBF3F00C4DA5FB00325109642202FBE5
:102164001102D3003233A5FB03235B095A0002F4A6
:10217400F87202EB011203F00703216813448B6029
:10218400DFE700BF001001401F85EB512DE9F0414E
:1021940004460F4616469846069D23681B6837EA90
:1021A40003030CBF01230023B3422BD1B5F1FF3F3E
:1021B400F3D02DB1FFF746F8A0EB0800A842ECD904
:1021C400226802F10C0353E8003F23F4D0730C326D
:1021D40042E800310029F3D1226802F1140353E8E4
:1021E400003F23F00103143242E800310029F3D107
:1021F400202384F8413084F84230002384F84030AE
:10220400032000E00020BDE8F08160B310B504466F
:1022140090F8413013B3242384F841302268D36802
:1022240023F40053D3602046FFF73EFF226813696E
:1022340023F4904313612268536923F02A03536102
:102244002268D36843F40053D360002060642023E1
:1022540084F8413084F84230606310BD80F8403027
:10226400FEF79CFBD7E7012070472DE9F04182B0CF
:102274001E4690F84130DBB2202B4BD104460D466C
:10228400904600294BD00AB9012344E0002343645B
:10229400212380F84130FEF7D5FF0746A4F82480B7
:1022A400A4F82680A368B3F5805F02D04FF000083D
:1022B4000EE02369F3B14FF0000809E038F8023B5F
:1022C4002268C3F308035360E38C013B9BB2E384AD
:1022D400E38C9BB28BB100963B46002280212046C2
:1022E400FFF754FFE8B9002DE8D015F8012B236857
:1022F4005A60E9E7A8460025EAE700963B46002233
:1023040040212046FFF742FF034660B9202284F8AB
:10231400412000E00223184602B0BDE8F081012309
:10232400F9E70323F7E70323F5E790F84130DBB23D
:10233400202B10D189B192B101628284C28400231E
:102344004364212280F841200168CA6842F0800277
:10235400CA60184670470220704701207047012068
:10236400704708B50168CB6823F04003CB60202395
:1023740080F84130FEF718F9002008BD704708B511
:10238400806B0023C385C384FFF7F8FF08BD704743
:1023940090F84230DBB2222B68D18368B3F5805FBA
:1023A4004ED0826AB3F5805F04D0002B55D1036907
:1023B400002B52D103685B681370836A0133836214
:1023C400C38D013B9BB2C385002B51D100B583B0B3
:1023D4000268D36823F02003D3600268D36823F42F
:1023E4008073D3600268536923F00103536120238F
:1023F40080F8423000234363036B012B33D1002365
:102404000363026802F10C0353E8003F23F0100356
:102414000C3242E800310029F3D103681A6812F043
:10242400100F06D0002201921A6801925B68019392
:10243400019B818DFFF7ABFF002003B05DF804FB27
:102444000269002AADD1826A03685B68C3F308039A
:102454001380836A02338362B2E703685B6803F024
:102464007F031370A9E7FEF7ADF8E5E70220704794
:102474000020704730B583B0044602681368D06802
:10248400516913F00F0505D113F0200F02D010F09D
:10249400200F19D12DB111F0010119D110F4907F41
:1024A40016D1216B01297DD013F0800F03D010F0D9
:1024B400800F40F0178113F0400F03D010F0400F4D
:1024C40040F0148103B030BD2046FFF761FFF9E707
:1024D40013F0010F06D010F4807F03D0626C42F039
:1024E4000102626413F0040F04D019B1626C42F06B
:1024F4000202626413F0020F04D019B1626C42F05C
:102504000402626413F0080F07D010F0200F00D10A
:1025140019B1626C42F008026264626C002AD1D084
:1025240013F0200F02D010F0200F29D123685B692B
:1025340003F04003626C12F0080F00D163B320462D
:10254400FFF755FD23685B6913F0400F20D0226824
:1025540002F1140353E8003F23F04003143242E82D
:1025640000310029F3D1E36B73B1624A1A65E06B61
:10257400FFF73AFC0028A5D0E06B036D9847A1E76C
:102584002046FFF705FFD1E72046FFF7F7FE99E75E
:102594002046FFF7F3FE95E72046FFF7EFFE002302
:1025A40063648FE713F0100F3FF47EAF10F0100F49
:1025B4003FF47AAF002301931368019353680193A6
:1025C400019B536913F0400F51D0E26B13685B68B1
:1025D4009BB2002B3FF476AFA18D99427FF672AF88
:1025E400E385D369B3F5807F37D0226802F10C0309
:1025F40053E8003F23F480730C3242E80031002991
:10260400F3D1226802F1140353E8003F23F00103DD
:10261400143242E800310029F3D1226802F1140394
:1026240053E8003F23F04003143242E8003100290C
:10263400F3D1202384F8423000232363226802F17B
:102644000C0353E8003F23F010030C3242E800313E
:102654000029F3D1E06BFFF77DFB02236363A18DB7
:10266400E38DC91A89B22046FFF791FE2AE7A18DAE
:10267400E38DC91A89B2E38D9BB2002B3FF422AFDC
:1026840000293FF41FAF226802F10C0353E8003F16
:1026940023F490730C3242E800300028F3D122680E
:1026A40002F1140353E8003F23F00103143242E81B
:1026B40000300028F3D1202384F842300023236320
:1026C400226802F10C0353E8003F23F010030C329C
:1026D40042E800300028F3D1022363632046FFF769
:1026E40056FEEFE62046FFF7B0FCEBE62046FFF788
:1026F40038FEE7E68323000881628285C2850023D1
:102704004364222380F84230036923B10268D3680A
:1027140043F48073D3600268536943F00103536147
:102724000268D36843F02003D3600020704708B5E3
:1027340090F84230DBB2202B08D149B10AB901200C
:1027440008BD00230363FFF7D7FFF9E70220F7E78B
:102754000120F5E7072833D8DFE800F0040A0F1555
:102764001B21272D174B00225A639A631A64704762
:10277400144B5963996319647047124B00225A63CE
:1027840099631A6470470F4B596300229A631A6461
:1027940070470C4B00225A639A6319647047094BC3
:1027A4005963996300221A647047064B59630022E7
:1027B4009A6319647047034B00225A63996319643E
:1027C400704700BF0004004010B5044C226800218B
:1027D400034800F017FA0023236010BD8000002096
:1027E400DC01002010B504460146B148FDF7E8FCC1
:1027F400002864D02146AF48FDF7E2FC002876D0DB
:102804002146AD48FDF7DCFC002800F08980214614
:10281400AA48FDF7D5FC002800F09B802146A84873
:10282400FDF7CEFC002800F0AD802146A548FDF759
:10283400C7FC002800F0BF802146A348FDF7C0FC78
:10284400002800F0D1802146A048FDF7B9FC0028FB
:1028540000F0E38021469E48FDF7B2FC002800F01A
:10286400F58021469B48FDF7ABFC002800F007816A
:1028740021469948FDF7A4FC002800F03B8121463D
:102884009648FDF79DFC002840F04D81FFF79CFF22
:10289400934C4FF47A730D2221469248FFF7E5FCDE
:1028A400002323606360A36023738F4A1370FF21A6
:1028B4008E4B19708E4B1878FFF74CFF16E0FFF71C
:1028C40083FF874C4FF47A730D2221468548FFF726
:1028D400CCFC002020606060A0602073824B1870E4
:1028E400834B1870814B1978FFF734FF10BDFFF745
:1028F4006BFF7B4C4FF47A730D2221467948FFF726
:10290400B4FC002323606360A3602373764A1370CE
:102914000120774B1870754B1978FFF71BFFE5E71B
:10292400FFF752FF6E4C4FF47A730D2221466D4827
:10293400FFF79BFC002323606360A36023736A4A50
:10294400137002206A4B1870684B1978FFF702FF66
:10295400CCE7FFF739FF624C4FF47A730D2221461E
:102964006048FFF782FC002323606360A360237345
:102974005D4A137003205E4B18705C4B1978FFF7A7
:10298400E9FEB3E7FFF720FF554C4FF47A730D22AD
:1029940021465448FFF769FC002323606360A36069
:1029A4002373514A13700420514B18704F4B1978FC
:1029B400FFF7D0FE9AE7FFF707FF494C4FF47A730D
:1029C4000D2221464748FFF750FC00232360636033
:1029D400A3602373444A13700520454B1870434B7E
:1029E4001978FFF7B7FE81E7FFF7EEFE3C4C4FF492
:1029F4007A730D2221463B48FFF737FC00232360FE
:102A04006360A3602373384A13700620384B187030
:102A1400364B1978FFF79EFE68E7FFF7D5FE304C7A
:102A24004FF47A730D2221462E48FFF71EFC002333
:102A340023606360A36023732B4A137007202C4B1D
:102A440018702A4B1978FFF785FE4FE7FFF7BCFE95
:102A5400234C4FF47A730D2221462248FFF705FCDC
:102A6400002323606360A36023731F4A1370102143
:102A74001E4B19701E4B1878FFF76CFE36E7FFF7F4
:102A8400A3FE174C4FF47A730D2221461548FFF725
:102A9400ECFB002323606360A3602373124A13706A
:102AA4006021124B1970124B1878FFF753FE1DE783
:102AB4001C000020500000204C0000204400002096
:102AC4002400002058000020140000203C000020B6
:102AD4002C000020300000203400002038000020AA
:102AE4008C2C0008940100207C00002001000020B0
:102AF40000000020FFF768FE154C4FF47A730D2296
:102B040021461448FFF7B1FB002323606360A360F0
:102B14002373114A1370A021104B1970104B1878AD
:102B2400FFF718FEE2E6FFF74FFE0E4C4FF47A7300
:102B3400132221460748FFF798FB002323606360B4
:102B4400A360E360C4F80F30034A1370CEE600BFFD
:102B54008C2C0008940100207C000020010000203F
:102B6400000000209C2C0008DFF834D0FFF73EFA68
:102B74000C480D490D4A002302E0D458C4500433D4
:102B8400C4188C42F9D30A4A0A4C002301E01360AA
:102B94000432A242FBD300F011F8FDF7FBFD7047AD
:102BA400000002200000002060000020C02C00086B
:102BB4006000002044020020FEE7000070B50026FB
:102BC4000C4D0D4C641BA410A64209D100F022F850
:102BD40000260A4D0A4C641BA410A64205D170BD00
:102BE40055F8043B98470136EEE755F8043B9847FF
:102BF4000136F2E7B82C0008B82C0008B82C0008FD
:102C0400BC2C000803460244934200D1704703F8E9
:102C1400011BF9E7F8B500BFF8BC08BC9E46704735
:0C2C2400F8B500BFF8BC08BC9E46704725
:102C30006C69645F6F70656E0D0A00006C69645F9B
:102C4000636C6F7365640D0A0000000054686520B2
:102C50006170706C69636174696F6E206973207252
:102C6000756E6E696E670D0A000000000006101692
:102C7000000610160000000000000000010203041E
:102C8000060708090000000001020304636F6C6F6F
:102C90007220666F756E640D0A000000636F6D6DC3
:102CA000616E64206E6F7420666F756E640D0A002D
:082CB00068D5FF7F0100000060
:042CB800A901000866
:042CBC008501000886
:102CC00001FF00004C2C0008010000001000000073
:102CD0000024F4006171756100000000626C6163A2
:102CE0006B000000626C75650000000062723000CD
:102CF000627231006272320062723300667563681C
:102D000073696100677265656E000000726564003A
:102D1000776869746500000079656C6C6F770000F6
:0400000508002B6D57
:00000001FF
