:020000040800F2
:1000000000000120352C0008850900088709000838
:10001000890900088B0900088D090008000000000C
:100020000000000000000000000000008F09000830
:1000300091090008000000009309000895090008D4
:10004000852C0008852C0008852C0008852C0008CC
:10005000852C0008852C0008852C0008852C0008BC
:10006000852C0008852C0008852C0008852C0008AC
:10007000852C0008852C0008852C0008852C00089C
:10008000852C0008852C0008852C00080000000045
:10009000000000000000000000000000852C0008A7
:1000A000852C0008852C0008852C0008852C00086C
:1000B000852C0008852C0008852C0008852C00085C
:1000C000852C0008852C0008852C0008852C00084C
:1000D000852C00089D090008852C00080000000000
:1000E000852C0008852C0008852C000800000000E5
:1000F000000000000000000000000000852C000847
:1001000000000000852C0008852C0008852C0008C4
:1001100000000000000000000000000000000000DF
:10012000852C0008852C0008AD090008852C0008E6
:10013000852C000800000000000000000000000006
:10014000000000000000000000000000852C0008F6
:10015000852C0008852C0008BD090008852C0008A6
:10016000852C0008852C000800000000000000001D
:10017000000000000000000000000000000000007F
:1001800000000000852C00080000000000000000B6
:04019000852C0008B2
:1001940010B5054C237833B9044B13B10448AFF3BD
:1001A40000800123237010BD5800002000000000CF
:1001B400E02C000808B5034B1BB103490348AFF317
:1001C400008008BD000000005C000020E02C000856
:1001D40010F8012B11F8013B012A28BF9A42F7D0ED
:1001E400D01A7047034613F8012B002AFBD1181AC2
:1001F4000138704753B94AB9002908BF00281CBF09
:100204004FF0FF314FF0FF3000F074B9ADF1080C3E
:100214006DE904CE00F006F8DDF804E0DDE9022320
:1002240004B070472DE9F047089E04468846002B29
:1002340040F085808A42154648D9B2FA82F24AB122
:10024400C2F1200701FA02F320FA07F7954047EAC2
:10025400030894404FEA154E230CB8FBFEF71FFA2F
:1002640085FC0EFB178843EA084307FB0CF199420F
:1002740009D9EB1807F1FF3080F0E380994240F28E
:10028400E080023F2B445B1AA4B2B3FBFEF00EFBEA
:10029400103344EA034400FB0CFCA44509D92C198F
:1002A40000F1FF3380F0CB80A44540F2C8800238CF
:1002B4002C4440EA0740A4EB0C0400271EB1D440B0
:1002C4000023C6E900433946BDE8F087002A53D02D
:1002D400B2FA82F2002A40F0B680491B4FEA154E6A
:1002E4001FFA85F80127B1FBFEFC230C0EFB1C1141
:1002F40043EA014308FB0CF1994207D9EB180CF1CE
:10030400FF3002D2994200F2EC808446591AA3B21B
:10031400B1FBFEF00EFB101443EA044408FB00F8A2
:10032400A04507D92C1900F1FF3302D2A04500F2F1
:10033400DC801846A4EB080440EA0C40BEE78B427C
:1003440008D9002E78D00027C6E90001384639467E
:10035400BDE8F087B3FA83F77FB98B4202D38242B8
:1003640000F2BD80841A61EB030301209846002E3D
:10037400A9D0C6E90048A6E7FFDEC7F12005BB40C7
:1003840022FA05FC4CEA030C01FA07F420FA05F8FA
:1003940021FA05F34FEA1C4E48EA0404B3FBFEF9C4
:1003A400210C0EFB19331FFA8CF841EA034309FBB5
:1003B40008FA9A4502FA07F200FA07F10BD91CEB86
:1003C400030309F1FF3080F088809A4540F285806C
:1003D400A9F102096344A3EB0A03A4B2B3FBFEF040
:1003E4000EFB103344EA034400FB08F8A04508D987
:1003F4001CEB040400F1FF336BD2A04569D9023829
:10040400644440EA0940A4EB0804A0FB02894C457B
:10041400C6464B4654D351D0002E69D0B1EB0E02E0
:1004240064EB030404FA05F522FA07F3FC401D43C8
:10043400C6E90054002746E73746304643E71846E6
:1004440037E707461FE7C2F1200320FA03F7954078
:1004540001FA02F021FA03F34FEA154E3843010C76
:10046400B3FBFEF71FFA85F80EFB173341EA03418D
:1004740007FB08F38B4204FA02F407D9691807F161
:10048400FF3C28D28B4226D9023F2944CB1A81B2A1
:10049400B3FBFEF00EFB103341EA034100FB08F30B
:1004A4008B4207D9691800F1FF3C10D28B420ED958
:1004B40002382944C91A40EA074714E74145ABD238
:1004C400B8EB020E69EB0C0201381346A4E7604650
:1004D400F0E7184695E76746D8E781467BE7384654
:1004E40045E7ACF1020C2B4410E702382C4421E719
:1004F4003746E8E6704700BFF0B58BB0002405949A
:10050400069407940894099401942A4B1A6B42F0B8
:1005140004021A631A6B02F004020192019A029413
:100524001A6B42F080021A631A6B02F08002029284
:10053400029A03941A6B42F001021A631A6B02F0D6
:1005440001020392039A04941A6B42F002021A63A2
:100554001B6B03F002030493049B174F22464FF4D2
:100564000051384601F0BFFA144E22464FF4707120
:10057400304601F0B8FA4FF400530593012506956F
:100584000794089405A9384601F0CEF90595069418
:10059400079405A90A4801F0C7F94FF4707305934D
:1005A400069507940323089305A9304601F0BCF986
:1005B4000BB0F0BD003802400008024000040240C5
:1005C4000000024010B582B0002401940D4B1A6B58
:1005D40042F480021A631B6B03F480030193019BB2
:1005E400224621463A2001F0B3FC3A2001F0E4FC13
:1005F40022462146462001F0ABFC462001F0DCFCFB
:1006040002B010BD0038024010B5054B1C682046EE
:10061400FFF7E8FD02460021204602F057FB10BD1B
:100624000000002010B5114B1B780D2B11D0104980
:100634000A68501C08600F498B54642301220B493B
:100644000D4801F0A9FE012208490B4802F00DF9FA
:1006540010BD0A4B01221A70094C64230222214660
:10066400054801F099FE00232380ECE77C0000207C
:1006740078000020D40100208C01002074000020A8
:10068400F82C000872B6FEE700B58FB000230A9379
:100694000B930C930D930893099301930293039383
:1006A40004930593069307932D482E4A026018225B
:1006B4004260836040F2E732C2600361836100F00C
:1006C4007FFB00283BD14FF480530A930AA92448A6
:1006D40000F07AFC002834D1214800F09DFB00286A
:1006E40031D100230893099308A91D4800F0BCFDEB
:1006F40058BB6023019340F2E73302930022039234
:10070400059201A9164800F0E5FB00BB04220DEB9D
:100714000201134800F0DEFBD8B9082201A91048F1
:1007240000F0D8FBB8B90C2201A90D4800F0D2FBA7
:1007340098B90B4800F07CF90FB05DF804FBFFF7A3
:10074400A1FFFFF79FFFFFF79DFFFFF79BFFFFF759
:1007540099FFFFF797FFFFF795FFFFF793FF00BFA0
:10076400840000200004004008B50A480A4B0360D6
:100774004FF4E133436000238360C36003610C22C0
:1007840042618361C36101F0D7FD00B908BDFFF781
:1007940079FF00BF8C0100200010014000B595B026
:1007A4003022002108A802F091FA00230393049355
:1007B4000593069307930193204A116C41F08051ED
:1007C4001164126C02F080520192019A02931C4A45
:1007D400136823F4404343F400431360136803F4A1
:1007E40040430293029B012308934FF480330993FF
:1007F40002230E934FF480020F9219221092A82222
:10080400119212930423139308A800F069FD80B990
:100814000F23039302210491002305934FF4805284
:100824000692079303A800F0A9FF20B915B05DF85C
:1008340004FBFFF727FFFFF725FF00BF0038024046
:100844000070004008B501F001FCFFF7A7FFFFF7B7
:1008540053FEFFF7B7FEFFF717FFFFF785FF3E4C88
:1008640000224021204601F03EF90022802120464A
:1008740001F039F900224FF48071204601F033F978
:1008840000224FF40071204601F02DF9334B1D680E
:100894002846FFF7A7FC324C82B22946204601F0D5
:1008A400E2FD01222F49204601F0DFFF2AE02E4815
:1008B40001F0FCFF2AE000224FF40051264801F029
:1008C40012F94FF4FA6001F0EDFB284C00212046A8
:1008D40000F00CFC0421204600F008FC082120460E
:1008E40000F004FC0C21204600F000FC204B4FF4E7
:1008F4007A729A634FF0804300229A634FF47A60CD
:1009040001F0D0FB1B4B1B78002BD0D101211A48DE
:1009140001F0E2F80128CED101224FF400510E4833
:1009240001F0E1F8154B4FF47A725A639A63DA6373
:100934001A640E4C0021204600F054FC0421204689
:1009440000F050FC0821204600F04CFC0C2120460D
:1009540000F048FCD6E700BF000802400000002079
:100964008C0100207C000020D401002084000020A1
:100974000000014074000020000002400004004018
:10098400FEE7FEE7FEE7FEE7FEE7704770477047C5
:1009940008B501F075FB08BD08B5024801F008FE72
:1009A40008BD00BF8C01002008B5024801F0D0F951
:1009B40008BD00BF2C01002008B5024801F0C8F9A9
:1009C40008BD00BFCC00002082B0002100910B4B79
:1009D4005A6C42F480425A645A6C02F48042009287
:1009E400009A01911A6C42F080521A641B6C03F055
:1009F40080530193019B02B0704700BF003802404E
:100A04000268094B9A4200D0704782B000230193D8
:100A1400064B1A6C42F002021A641B6C03F00203C8
:100A24000193019B02B0704700040040003802406B
:100A340030B589B000230393049305930693079379
:100A44000268184B9A4201D009B030BD00250195C7
:100A540003F50D331A6B42F001021A631A6B02F0AC
:100A640001020192019A02951A6B42F002021A6382
:100A74001B6B03F002030293029BC0230393022423
:100A84000494079403A9084800F04EFF032303933A
:100A9400049405950695079403A9044800F044FFBF
:100AA400D2E700BF000400400000024000040240FE
:100AB40030B589B0002303930493059306930793F9
:100AC400026803F1804303F588339A4201D009B0E8
:100AD40030BD04460025019503F594335A6C42F069
:100AE40010025A645A6C02F010020192019A0295A3
:100AF4001A6B42F001021A631B6B03F001030293A9
:100B0400029B4FF4C06303930223049303230693CD
:100B14000723079303A9204800F006FF1F48204B32
:100B240003604FF0006343608560C5604FF48063E9
:100B3400036145618561C5610562456201F044F860
:100B440018BB164BE3639C631648174B03604FF0C6
:100B540000634360402383600023C3604FF48062DA
:100B6400026143618361C3610362436201F02CF853
:100B740070B90C4BA3639C6300221146252001F03D
:100B8400E7F9252001F018FAA1E7FFF77BFDD8E784
:100B9400FFF778FDEDE700BF000002402C010020C4
:100BA40040640240CC000020B864024070B4036A80
:100BB400026A22F0010202624668826922F073022C
:100BC4000C6844EA020523F002028B6813430D4CBF
:100BD400A04209D00B4CA0420DD0466085614A6802
:100BE4004263036270BC704723F00803CA6813436E
:100BF40023F00403EEE726F440764A6932438E6913
:100C04001643EAE70000014030B4036A026A22F4A2
:100C1400807202624568C26922F073020C68224342
:100C240023F400738C6843EA04230F4CA04209D0D8
:100C34000D4CA0420ED04560C2614A68C263036293
:100C440030BC704723F40063CC6843EA042323F4E4
:100C54008063EDE725F440554C6945EA04158C6939
:100C640045EA0415E7E700BF0000014030B4036A19
:100C7400026A22F4805202624468C26922F4E642A3
:100C84000D6842EA052223F400538D6843EA0533D4
:100C9400074DA84206D04460C2614A6802640362F8
:100CA40030BC704724F480444D6944EA8514F2E76B
:100CB4000000014010B4036A046A24F001040462D1
:100CC400846924F0F00444EA021223F00A030B437B
:100CD400826103625DF8044B704710B4036A046ACE
:100CE40024F010040462846924F4704444EA023257
:100CF40023F0A00343EA0113826103625DF8044B0D
:100D04007047836823F07003194341F00701816041
:100D1400704770470368294A90420ED0B0F1804F63
:100D24000BD0A2F57C42904207D002F5806290423B
:100D340003D002F58062904203D123F070034A6825
:100D440013431E4A90421AD0B0F1804F17D0A2F537
:100D54007C42904213D002F5806290420FD002F59B
:100D6400806290420BD002F59A32904207D002F58D
:100D74008062904203D002F58062904203D123F452
:100D84004073CA68134323F080034A691343036022
:100D94008B68C3620B688362084B98420AD00123B4
:100DA4004361036913F0010F03D0036923F00103C6
:100DB400036170470B690363F1E700BF0000014062
:100DC40040B310B5044690F83D30F3B1022384F8E3
:100DD4003D30214651F8040BFFF79CFF012384F8B2
:100DE400463084F83E3084F83F3084F8403084F84C
:100DF400413084F8423084F8433084F8443084F835
:100E0400453084F83D30002010BD80F83C30FFF7B9
:100E1400F7FDDBE70120704740B310B5044690F8B6
:100E24003D30F3B1022384F83D30214651F8040BE0
:100E3400FFF770FF012384F8463084F83E3084F8CD
:100E44003F3084F8403084F8413084F8423084F8EC
:100E5400433084F8443084F8453084F83D30002031
:100E640010BD80F83C30FFF754FFDBE701207047EA
:100E740030B4036A026A22F0100202624468826992
:100E840022F4E6420D6842EA052223F020038D682D
:100E940043EA05130E4DA84209D00D4DA8420ED0C9
:100EA400446082614A688263036230BC704723F005
:100EB4008003CD6843EA051323F04003EDE724F4EF
:100EC40040644D6944EA85048D6944EA8504E7E792
:100ED4000000014038B590F83C30012B66D00D4637
:100EE4000446012380F83C300C2A5DD8DFE802F088
:100EF400075C5C5C1E5C5C5C335C5C5C47000068AB
:100F0400FFF754FE2268936943F008039361226853
:100F1400936923F0040393612268936929690B435D
:100F240093610020002384F83C3038BD0068FFF74B
:100F34009FFF2268936943F4006393612268936975
:100F440023F48063936122689369296943EA012346
:100F540093610020E6E70068FFF756FE2268D36934
:100F640043F00803D3612268D36923F00403D361F7
:100F74002268D36929690B43D3610020D2E7006852
:100F8400FFF774FE2268D36943F40063D3612268D7
:100F9400D36923F48063D3612268D369296943EA5E
:100FA4000123D3610020BDE70120BBE70220BCE799
:100FB40010B4846824F47F4442EA03230B4323439C
:100FC40083605DF8044B704790F83C30012B79D076
:100FD40010B50446012380F83C30022380F83D30EC
:100FE4000268936823F47F4323F0770393600B68CC
:100FF400402B54D011D9702B39D023D8502B43D047
:10100400602B1DD1CA6849680068FFF766FE60213D
:101014002068FFF776FE00200BE0102B4AD005D99C
:10102400202B47D0302B45D0012002E0002B41D0AB
:101034000120012384F83D30002384F83C3010BDA6
:101044000120F6E7B3F5805F3AD0B3F5005F0CD129
:10105400CB684A6889680068FFF7AAFF226893682A
:1010640043F4804393600020E3E70120E1E7CB6889
:101074004A6889680068FFF79BFF2268936843F019
:10108400770393600020D4E7CA6849680068FFF7D3
:1010940011FE50212068FFF734FE0020C9E7CA681A
:1010A40049680068FFF706FE40212068FFF729FE23
:1010B4000020BEE719462068FFF723FE0020B8E7AA
:1010C4000020B6E70220704710B401F01F0101238D
:1010D40003FA01F4036A23EA04030362036A8A40FD
:1010E400134303625DF8044B704700000A4600296D
:1010F40035D190F83E30DBB213F1FF3318BF012332
:10110400002B68D110B5002A45D1022380F83E3067
:101114001146044601220068FFF7D6FF2368304ACF
:10112400934248D023682E4A934249D0B3F1804F6A
:1011340046D0A2F57C42934242D002F580629342AB
:101144003ED002F5806293423AD002F59A3293423D
:1011540036D01A6842F001021A6000203AE00429ED
:1011640009D008290FD090F84130DBB213F1FF33D6
:1011740018BF0123C4E790F83F30DBB213F1FF330B
:1011840018BF0123BCE790F84030DBB213F1FF3302
:1011940018BF0123B4E7042A05D0082A07D0022384
:1011A40080F84130B4E7022380F83F30B0E70223EF
:1011B40080F84030ACE75A6C42F400425A64B1E71C
:1011C4009A6802F00702062A07D01A6842F0010260
:1011D4001A60002010BD012070470020FAE700BF0C
:1011E4000000014038B504460D4600220068FFF7B0
:1011F4006BFF23681B4A934214D02368196A41F297
:101204001112114208D1196A40F24442114203D129
:101214001A6822F001021A609DB9012384F83E3055
:10122400002038BD196A41F211121142E5D1196A40
:1012340040F244421142E0D15A6C22F400425A6412
:10124400DBE7042D05D0082D07D0012384F84130B5
:10125400E6E7012384F83F30E2E7012384F84030D5
:10126400DEE700BF0000014090F83C30012B33D092
:1012740030B4012380F83C30022380F83D30036809
:101284005C689D6824F070040A6822435A6003680D
:10129400124A934212D0B3F1804F0FD0A2F57C4290
:1012A40093420BD002F58062934207D002F580622C
:1012B400934203D002F59A32934204D125F080057B
:1012C4004A6815439D60012380F83D30002380F86F
:1012D4003C30184630BC7047022070470000014083
:1012E400002800F0DF8170B582B00446036813F073
:1012F400010F3BD0A64B9B6803F00C03042B2CD0AE
:10130400A34B9B6803F00C03082B21D06368B3F54F
:10131400803F4FD0B3F5A02F52D09D4B1A6822F4D2
:1013240080321A601A6822F480221A606368002BE3
:1013340050D000F0B1FE0546954B1B6813F4003FF6
:1013440014D100F0A9FE401B6428F5D90320B0E1B4
:101354008F4B5B6813F4800FD8D08D4B1B6813F44C
:10136400003F03D06368002B00F09E81236813F0D4
:10137400020F54D0864B9B6813F00C0F3ED0844B65
:101384009B6803F00C03082B33D0E368002B67D071
:10139400804B01221A6000F07FFE05467C4B1B68DF
:1013A40013F0020F53D100F077FE401B0228F5D949
:1013B40003207EE1764A136843F480331360B5E773
:1013C400734B1A6842F480221A601A6842F480321D
:1013D4001A60ABE700F060FE05466D4B1B6813F422
:1013E400003FC3D000F058FE401B6428F5D9032009
:1013F4005FE1674B5B6813F4800FC6D1644B1B68D5
:1014040013F0020F03D0E368012B40F04F81604AD0
:10141400136823F0F803216943EAC10313602368C6
:1014240013F0080F40D0636963B35B4B01221A6069
:1014340000F032FE0546564B5B6F13F0020F33D1BA
:1014440000F02AFE401B0228F5D9032031E1504A5E
:10145400136823F0F803216943EAC1031360DEE74C
:101464004C4B00221A6000F017FE0546484B1B68DF
:1014740013F0020FD3D000F00FFE401B0228F5D961
:10148400032016E1444B00221A6000F005FE0546D5
:101494003F4B5B6F13F0020F06D000F0FDFD401BC5
:1014A4000228F5D9032004E1236813F0040F78D04F
:1014B400374B1B6C13F0805F33D100230193344B03
:1014C4001A6C42F080521A641B6C03F0805301932F
:1014D400019B0125314B1B6813F4807F23D0A36843
:1014E400012B34D0052B38D0294B1A6F22F001027E
:1014F4001A671A6F22F004021A67A368002B36D009
:1015040000F0CAFD0646224B1B6F13F0020F47D1B1
:1015140000F0C2FD801B41F288339842F3D90320C6
:10152400C7E00025D6E71D4A136843F480731360AF
:1015340000F0B2FD0646194B1B6813F4807FCED130
:1015440000F0AAFD801B0228F5D90320B1E0104A5F
:10155400136F43F001031367CFE70D4B1A6F42F08B
:1015640004021A671A6F42F001021A67C5E700F015
:1015740093FD0646064B1B6F13F0020F10D000F0CC
:101584008BFD801B41F288339842F3D9032090E00D
:101594000038024000004742800E4742007000407D
:1015A400EDB9A369002B00F08380494A926802F0E8
:1015B4000C02082A51D0022B17D0464B00221A6085
:1015C40000F06AFD0446424B1B6813F0007F42D0D2
:1015D40000F062FD001B0228F5D9032069E03C4AB3
:1015E400136C23F080531364DBE73A4B00221A6038
:1015F40000F052FD0546364B1B6813F0007F06D001
:1016040000F04AFD401B0228F5D9032051E0E369AC
:10161400226A1343626A43EA8213A26A5208013AB5
:1016240043EA0243E26A43EA0263294A5360294BCC
:1016340001221A6000F030FD0446254B1B6813F0AC
:10164400007F06D100F028FD001B0228F5D90320F5
:101654002FE000202DE000202BE0012B2BD01C4B91
:101664005B6803F48001E269914226D103F03F02F2
:10167400216A8A4223D1616A47F6C0721A40B2EBEA
:10168400811F1ED103F44031A26A5208013AB1EB22
:10169400024F18D103F07063E26AB3EB026F14D106
:1016A400002006E001207047012002E0012000E054
:1016B400002002B070BD0120FBE70120F9E7012002
:1016C400F7E70120F5E70120F3E70120F1E700BF88
:1016D4000038024060004742254B9B6803F00C032E
:1016E400042B40D0082B40D170B5214B5A6802F02E
:1016F4003F025B6813F4800F12D01D4B5968C1F38D
:10170400881100231B48A1FB0001FEF773FD184B51
:101714005B68C3F3014301335B00B0FBF3F070BDBE
:10172400134B5868C0F388100546002643011B1A62
:1017340066EB0604A10141EA93619801C01A61EBCA
:101744000401CB0043EA5073C4001946601946EB08
:1017540001018B0243EA9053840220461946334622
:10176400FEF748FDD3E7034870470348704700BFBE
:101774000038024040787D010024F400002800F085
:101784009B8070B50446504B1B6803F007038B42E3
:1017940008D2CBB24C4A1370136803F007038B4290
:1017A40040F08C80236813F0020F17D013F0040F5D
:1017B40004D0464A936843F4E0539360236813F0DB
:1017C400080F04D0414A936843F4604393603F4A4E
:1017D400936823F0F003A068034393600D462368E5
:1017E40013F0010F32D06368012B21D09A1E012A15
:1017F40025D9364A126812F0020F61D033498A683B
:1018040022F0030213438B6000F046FC06462F4B84
:101814009B6803F00C036268B3EB820F16D000F0F0
:101824003BFC801B41F288339842F0D9032042E00C
:10183400264A126812F4003FE0D101203BE0234A1B
:10184400126812F0007FD9D1012034E01E4B1B68CE
:1018540003F00703AB4207D9EAB21B4B1A701B68AB
:1018640003F00703AB422DD1236813F0040F06D015
:10187400164A936823F4E053E1680B4393602368AA
:1018840013F0080F07D0114A936823F460432169C9
:1018940043EAC1039360FFF71FFF0C4B9B68C3F33C
:1018A40003130B4AD35CD8400A4B18600A4B1868E0
:1018B40000F0A6FB002070BD012070470120FAE76C
:1018C4000120F8E70120F6E7003C0240003802401E
:1018D400242D00080C00002008000020014B18688B
:1018E400704700BF0C00002008B5FFF7F7FF044B5A
:1018F4009B68C3F38223034AD35CD84008BD00BF6E
:1019040000380240342D000808B5FFF7E7FF044B08
:101914009B68C3F34233034AD35CD84008BD00BF7D
:1019240000380240342D000800230F2B00F2CA8037
:10193400F0B482B05DE086685F000324BC4026EA10
:101944000406CC68BC4034438460466826EA020638
:101954004C68C4F300129A403243426056E0DC08FB
:10196400083450F8247003F0070296000F22B240A6
:1019740027EA02070A69B2403A4340F8242059E0B2
:10198400042200E00022B2403A4302344E4E46F8AC
:1019940024204E4A9468EA4302EA04064F6817F486
:1019A400801F01D045EA0406484CA660E46802EAB8
:1019B40004064F6817F4001F01D045EA0406434C9F
:1019C400E660646802EA04064F6817F4003F01D039
:1019D40045EA04063D4C6660246822404E6816F4CD
:1019E400803F01D045EA0402384C226001330F2BBA
:1019F40065D801229A400C6804EA0205AA42F5D18E
:101A04004C6804F00304013C012C94D94A6802F0A8
:101A14000302032A09D0C4685E000322B24024EA08
:101A240002048A68B2402243C2604A6802F0030298
:101A3400022A94D004685E000322B24024EA02041D
:101A44004A6802F00302B240224302604A6812F478
:101A5400403FCBD0002201921D4A546C44F4804490
:101A64005464526C02F480420192019A9C08A61CB0
:101A7400154A52F8267003F0030296000F22B24072
:101A840027EA0207134A90423FF47CAF02F58062D2
:101A940090420ED002F5806290420CD002F5806232
:101AA40090420AD002F5806290423FF469AF072267
:101AB40069E7012267E7022265E7032263E702B0D0
:101AC400F0BC7047704700BF00380140003C014043
:101AD40000380240000002400369194201D001208D
:101AE4007047002070470AB1816170470904816121
:101AF4007047000010B40368D9B210390C4AA2FB35
:101B0400014212090B4CA25CC2655F2909D923F476
:101B14007F7323F0030304338365806D5DF8044B06
:101B2400704723F47F7323F003038365F5E700BF55
:101B3400ABAAAAAA1C2D0008836A826992B9012B58
:101B44000AD01BB1022B01D000207047C36A13F0E6
:101B5400807F28D100207047C36AB3F1C07F24D0AE
:101B640000207047B2F5005F09D0022B25D9032B62
:101B740025D1C36A13F0807F23D100207047032B43
:101B840003D8DFE803F01404140A00207047C36A82
:101B940013F0807F0DD100207047C36AB3F1C07F7A
:101BA40009D00020704701207047012070470120B0
:101BB40070470120704701207047012070470020C2
:101BC400704701207047000070B5044600F064FAC5
:101BD400002C5BD00546022384F83530002384F8BA
:101BE40034302268136823F00103136023681A68F1
:101BF40012F0010F0AD000F04FFA401B0528F5D966
:101C040020236365032084F8350070BD1A682048DA
:101C140010406168A2680A43E1680A4321690A43E3
:101C240061690A43A1690A43E1690A43216A0A43D3
:101C34000243616A04291ED01A602668756925F07A
:101C44000705636A1D43042B07D1A36A1D43E36A96
:101C54001BB12046FFF770FF90B975612046FFF76E
:101C640049FFE26D3F2393408360002060650123B8
:101C740084F83530C9E7E16A206B01430A43DBE7A6
:101C840040236365012084F83500BEE70120BCE7EA
:101C94003F8010F070B50446866D00F0FDF994F8AD
:101CA4003530DBB2022B06D080236365002384F831
:101CB4003430012070BD05462268136823F01603F2
:101CC40013602268536923F080035361236CE3B1EA
:101CD4002268136823F0080313602268136823F052
:101CE4000103136023681B6813F0010F11D000F087
:101CF400D3F9401B0528F5D920236365032084F814
:101D04003500002384F83430D4E7A36C002BDFD1F2
:101D1400E3E7E26D3F239340B360012384F8353059
:101D2400002084F83400C5E790F83530DBB2022B8C
:101D340003D08023436501207047052380F83530A4
:101D44000268136823F00103136000207047000049
:101D5400F0B583B0044600230193724B1D68724BA7
:101D6400A3FB0535AD0A876D3E68C26D0823934019
:101D7400334210D003681A6812F0040F0BD01A68AB
:101D840022F004021A60C26D08239340BB60436DC5
:101D940043F001034365E26D01239340334209D0CC
:101DA4002268526912F0800F04D0BB60636D43F067
:101DB40002036365E26D04239340334209D0226831
:101DC400126812F0020F04D0BB60636D43F0040389
:101DD4006365E26D10239340334224D02268126875
:101DE40012F0080F1FD0BB6023681A6812F4802F0A
:101DF4000DD01B6813F4002F04D1236C9BB1204633
:101E0400984710E0A36C73B1204698470BE01A681A
:101E140012F4807F03D11A6822F008021A60236C3E
:101E24000BB120469847E26D20239340334255D0AE
:101E34002268126812F0100F50D0BB6094F835304D
:101E4400DBB2052B0ED023681A6812F4802F33D02E
:101E54001B6813F4002F2AD1636C002B3ED020465C
:101E640098473BE02268136823F016031360226846
:101E7400536923F080035361236CA3B12268136870
:101E840023F008031360E26D3F239340BB600123FA
:101E940084F83530002384F83430236D002B3FD090
:101EA400204698473CE0A36C002BE7D1EBE7E36BBB
:101EB400A3B12046984711E01A6812F4807F09D133
:101EC4001A6822F010021A60012384F835300023C6
:101ED40084F83430E36B0BB120469847636DFBB153
:101EE400636D13F0010F17D0052384F83530226891
:101EF400136823F001031360019B01330193AB4288
:101F040004D823681B6813F0010FF5D1012384F86A
:101F14003530002384F83430E36C0BB12046984705
:101F240003B0F0BD0C000020B5814E1B074AD368F6
:101F340023F4E0631B041B0C000200F4E06018436C
:101F440040F0BF6040F40030D060704700ED00E026
:101F540030B4174BDB68C3F30223C3F10704042C2A
:101F640028BF04241D1D062D01D9033B00E00023D6
:101F74004FF0FF3505FA04F421EA0401994005FA0B
:101F840003F322EA03031943002809DB0901C9B258
:101F940000F1604000F5614080F8001330BC7047E8
:101FA40000F00F000901C9B2024B1954F6E700BF53
:101FB40000ED00E014ED00E0002807DB00F01F0254
:101FC400400901239340024A42F82030704700BF81
:101FD40000E100E00138B0F1807F0AD2064B58607E
:101FE400064AF02182F823100020986007221A6024
:101FF40070470120704700BF10E000E000ED00E0F2
:1020040010B504460E4B18784FF47A73B3FBF0F313
:102014000C4A1068B0FBF3F0FFF7DCFF68B90F2C33
:1020240001D901200AE0002221464FF0FF30FFF7DA
:102034008FFF054B1C60002000E0012010BD00BF95
:10204400040000200C0000200800002008B50B4B01
:102054001A6842F400721A601A6842F480621A60C4
:102064001A6842F480721A600320FFF75FFF0F20A2
:10207400FFF7C6FFFEF7A8FC002008BD003C0240A5
:10208400034A1168034B1B780B441360704700BF6D
:102094003802002004000020014B1868704700BF7C
:1020A4003802002038B50446FFF7F6FF0546B4F1C0
:1020B400FF3F02D0044B1B781C44FFF7EDFF401B8D
:1020C400A042FAD338BD00BF04000020034AD2F86E
:1020D400883043F47003C2F88830704700ED00E0A4
:1020E400026802F10C0353E8003F23F490730C32AE
:1020F40042E800310029F3D1026802F1140353E8E5
:10210400003F23F00103143242E800310029F3D1E7
:10211400036B012B05D0202380F842300023036396
:102124007047026802F10C0353E8003F23F01003E8
:102134000C3242E800310029F3D1ECE790F8413049
:10214400DBB2212B01D0022070478368B3F5805F96
:1021540016D0036A5A1C02621A7803685A60C38C48
:10216400013B9BB2C3844BB90268D36823F080035C
:10217400D3600268D36843F04003D3600020704703
:102184000369002BE5D1036A1B880268C3F30803C3
:102194005360036A02330362E1E7000070B504464A
:1021A4000268136923F44053C1680B4313618368C5
:1021B4000269134342691343C2691A430168CB6835
:1021C40023F4164323F00C031343CB6002685369D2
:1021D40023F4407381690B4353610368344A934287
:1021E40006D002F58062934202D0FFF77DFB01E046
:1021F400FFF78AFBE369B3F5004F2AD000260518E0
:1022040046EB06012D1846EB0101CB0043EA55735A
:10221400EA001546194663689A009B0F281846EB96
:102224000101FDF7E7FF234DA5FB003251096423AB
:1022340003FB11031B013233A5FB03235B0903F0EA
:10224400F00202EB011203F00F03216813448B60C8
:1022540070BD0026051846EB06012D1846EB01015A
:10226400CB0043EA5573EA001546194662683346C3
:10227400921846EB0303281846EB0101FDF7BAFF59
:102284000C4DA5FB00325109642303FB1103DB0051
:102294003233A5FB03235B095A0002F4F87202EB04
:1022A400011203F00703216813448B60D0E700BFD9
:1022B400001001401F85EB512DE9F04182B0044626
:1022C4000E4617469846089D23681B6836EA0303A2
:1022D4000CBF01230023BB4226D1B5F1FF3FF3D04D
:1022E400FFF7DAFEA0EB0800A84221D815B3236853
:1022F400DA6812F0040FE7D0802EE5D0402EE3D048
:102304001A6812F0080FDFD0002501951A680192AF
:102314005B680193019B2046FFF7E2FE0823636498
:1023240084F84050012000E0002002B0BDE8F081B4
:102334000320FAE70320F8E760B310B5044690F8E9
:10234400413013B3242384F841302268D36823F442
:102354000053D3602046FFF721FF2268136923F45A
:10236400904313612268536923F02A03536122685E
:10237400D36843F40053D36000206064202384F8BE
:10238400413084F84230606310BD80F84030FEF77D
:102394008FFBD7E7012070472DE9F04182B01E463C
:1023A40090F84130DBB2202B56D104460D469046BE
:1023B400002956D00AB901234FE0002343642123A6
:1023C40080F84130FFF768FE0746A4F82480A4F89B
:1023D4002680A368B3F5805F02D04FF0000813E0B5
:1023E400236923B34FF000080EE0202384F8413022
:1023F400032332E038F8023B2268C3F30803536036
:10240400E38C013B9BB2E384E38C9BB293B10096D3
:102414003B46002280212046FFF74EFF0028E4D1EE
:10242400002DE7D015F8012B23685A60E8E7A84689
:102434000025E9E700963B46002240212046FFF7AD
:102444003BFF034618B9202284F8412005E02023ED
:1024540084F84130032300E00223184602B0BDE8AB
:10246400F0810123F9E790F84130DBB2202B10D141
:1024740089B192B101628284C2840023436421221F
:1024840080F841200168CA6842F08002CA60184698
:10249400704702207047012070470120704708B53B
:1024A4000168CB6823F04003CB60202380F84130DF
:1024B400FEF7AAF8002008BD704708B5806B00231A
:1024C400C385C384FFF7F8FF08BD704790F8423016
:1024D400DBB2222B68D18368B3F5805F4ED0826A69
:1024E400B3F5805F04D0002B55D10369002B52D182
:1024F40003685B681370836A01338362C38D013B95
:102504009BB2C385002B51D100B583B00268D36858
:1025140023F02003D3600268D36823F48073D3606C
:102524000268536923F001035361202380F8423089
:1025340000234363036B012B33D10023036302683D
:1025440002F10C0353E8003F23F010030C3242E87D
:1025540000310029F3D103681A6812F0100F06D075
:10256400002201921A6801925B680193019B818D9C
:10257400FFF7ABFF002003B05DF804FB0269002AFB
:10258400ADD1826A03685B68C3F308031380836A6E
:1025940002338362B2E703685B6803F07F0313705E
:1025A400A9E7FEF73FF8E5E70220704700207047EF
:1025B40030B583B0044602681368D068516913F0DB
:1025C4000F0505D113F0200F02D010F0200F19D100
:1025D4002DB111F0010119D110F4907F16D1216BA6
:1025E40001297DD013F0800F03D010F0800F40F04C
:1025F400178113F0400F03D010F0400F40F0148106
:1026040003B030BD2046FFF761FFF9E713F0010F77
:1026140006D010F4807F03D0626C42F00102626441
:1026240013F0040F04D019B1626C42F00202626428
:1026340013F0020F04D019B1626C42F00402626418
:1026440013F0080F07D010F0200F00D119B1626CFD
:1026540042F008026264626C002AD1D013F0200FA9
:1026640002D010F0200F29D123685B6903F04003E6
:10267400626C12F0080F00D163B32046FFF730FDFF
:1026840023685B6913F0400F20D0226802F1140321
:1026940053E8003F23F04003143242E8003100299C
:1026A400F3D1E36B73B1624A1A65E06BFFF73CFB4D
:1026B4000028A5D0E06B036D9847A1E72046FFF7FB
:1026C40005FFD1E72046FFF7F7FE99E72046FFF71D
:1026D400F3FE95E72046FFF7EFFE002363648FE7E0
:1026E40013F0100F3FF47EAF10F0100F3FF47AAFE9
:1026F400002301931368019353680193019B536969
:1027040013F0400F51D0E26B13685B689BB2002B4F
:102714003FF476AFA18D99427FF672AFE385D3691A
:10272400B3F5807F37D0226802F10C0353E8003FF1
:1027340023F480730C3242E800310029F3D122687B
:1027440002F1140353E8003F23F00103143242E87A
:1027540000310029F3D1226802F1140353E8003F49
:1027640023F04003143242E800310029F3D120233E
:1027740084F8423000232363226802F10C0353E8F7
:10278400003F23F010030C3242E800310029F3D15A
:10279400E06BFFF77FFA02236363A18DE38DC91A0F
:1027A40089B22046FFF791FE2AE7A18DE38DC91A6D
:1027B40089B2E38D9BB2002B3FF422AF00293FF492
:1027C4001FAF226802F10C0353E8003F23F4907317
:1027D4000C3242E800300028F3D1226802F11403DD
:1027E40053E8003F23F00103143242E8003000288C
:1027F400F3D1202384F8423000232363226802F1BA
:102804000C0353E8003F23F010030C3242E800307D
:102814000028F3D1022363632046FFF756FEEFE658
:102824002046FFF78BFCEBE62046FFF738FEE7E691
:10283400BF24000881628285C28500234364222369
:1028440080F84230036923B10268D36843F480738B
:10285400D3600268536943F0010353610268D3688B
:1028640043F02003D3600020704708B590F842304D
:10287400DBB2202B08D149B10AB9012008BD0023DD
:102884000363FFF7D7FFF9E70220F7E70120F5E735
:1028940010B5044C22680021034800F017FA002305
:1028A400236010BD78000020D401002010B5044638
:1028B40001467F48FDF78CFC00283ED021467D4828
:1028C400FDF786FC00284DD021467B48FDF780FCAF
:1028D40000285DD021467948FDF77AFC00286DD0A8
:1028E40021467748FDF774FC00287DD021467548C1
:1028F400FDF76EFC002800F08C8021467248FDF73D
:1029040067FC002840F09F80704B1868B0F5617F29
:1029140040F29480FFF7BCFF6D4C4FF47A730F22A2
:1029240021466C48FFF738FD002323606360A360F1
:10293400C4F80B30684A137013E000F00BF9FFF78A
:10294400A7FF634C4FF47A730F2221466148FFF7C7
:1029540023FD002323606360A360C4F80B305E4A48
:10296400137010BD012000F0F5F8FFF791FF584CEB
:102974004FF47A730F2221465648FFF70DFD0023CA
:1029840023606360A360C4F80B30534A1370E8E714
:10299400022000F0DFF8FFF77BFF4D4C4FF47A7311
:1029A4000F2221464B48FFF7F7FC002323606360A6
:1029B400A360C4F80B30484A1370D2E7032000F038
:1029C400C9F8FFF765FF424C4FF47A730F22214692
:1029D4004048FFF7E1FC002323606360A360C4F870
:1029E4000B303D4A1370BCE700F09CF8FFF750FF32
:1029F400374C4FF47A730F2221463648FFF7CCFC4C
:102A0400002323606360A360C4F80B30324A137060
:102A1400A7E700F06FF8FFF73BFF2D4C4FF47A73F4
:102A24000F2221462B48FFF7B7FC00232360636085
:102A3400A360C4F80B30284A137092E73230186050
:102A440000F050F866E721462448FDF7C1FBD8B9E9
:102A54001E4B1868632812D8FFF71AFF1C4C4FF45A
:102A64007A730F2221461B48FFF796FC002323604C
:102A74006360A360C4F80B30174A137071E73238EF
:102A8400186000F02FF8E7E7FFF702FF144C4FF44B
:102A94007A73132221460F48FFF77EFC002323603C
:102AA4006360A360E360C4F80F300B4A137058E707
:102AB4001800002010000020200000202800002022
:102AC4004C000020440000203C0000205400002062
:102AD4003C2D00088C0100207400002030000020F0
:102AE4004C2D0008024B58639863D86318647047F0
:102AF4000004004010B50A4C00212046FEF7F6FA07
:102B040004212046FEF7F2FA08212046FEF7EEFAE9
:102B14000C212046FEF7EAFA6420FFF7C3FA10BD41
:102B24008400002010B50A4C00212046FEF75AFB11
:102B340004212046FEF756FB08212046FEF752FBEF
:102B44000C212046FEF74EFB6420FFF7ABFA10BDC4
:102B54008400002010B50446FFF7E4FF032C1AD8C4
:102B6400DFE804F0021C344C304C012240212046A2
:102B7400FEF7B9FF012280212046FEF7B4FF0122AF
:102B84004FF480712046FEF7AEFF01224FF400712E
:102B94002046FEF7A8FFFFF7ADFF10BD234C00222F
:102BA40040212046FEF79FFF002280212046FEF7A9
:102BB4009AFF00224FF480712046FEF794FF002212
:102BC4004FF400712046FEF78EFFE4E7174C002215
:102BD40040212046FEF787FF012280212046FEF790
:102BE40082FF01224FF480712046FEF77CFF002211
:102BF4004FF400712046FEF776FFCCE70B4C012220
:102C040040212046FEF76FFF002280212046FEF778
:102C14006AFF00224FF480712046FEF764FF012210
:102C24004FF400712046FEF75EFFB4E7000802404F
:102C3400DFF834D0FFF74AFA0C480D490D4A002357
:102C440002E0D458C4500433C4188C42F9D30A4A5D
:102C54000A4C002301E013600432A242FBD300F0CB
:102C640011F8FDF7EFFD704700000120000000207F
:102C740058000020702D0008580000203C0200205D
:102C8400FEE7000070B50D4D0D4C641BA41000262A
:102C9400A64209D10B4D0C4C00F020F8641BA41083
:102CA4000026A64205D170BD55F8043B984701366D
:102CB400EEE755F8043B98470136F2E7682D000823
:102CC400682D0008682D00086C2D00080244034696
:102CD400934200D1704703F8011BF9E7F8B500BF30
:102CE400F8BC08BC9E467047F8B500BFF8BC08BCE9
:042CF4009E46704741
:102CF8000D0A0000546865206170706C6963617426
:102D0800696F6E2069732072756E6E696E670D0A41
:102D18000000000000061016000610160000000053
:102D28000000000001020304060708090000000073
:102D380001020304636F6D6D616E6420666F756ECA
:102D4800640D0A00636F6D6D616E64206E6F742090
:082D5800666F756E640D0A0040
:082D6000C8D4FF7F0100000050
:042D6800B9010008A5
:042D6C0095010008C5
:102D7000FC2C000801000000100000000024F400FA
:102D80006261636B00000000666F727761726400BD
:102D90006C6566740000000072696768740000006A
:102DA0007370656564646F776E00000073706565AD
:102DB00064757000737461727400000073746F70D6
:082DC0000000000020030000E8
:0400000508002C358E
:00000001FF
